{
  "contractName": "RSVP",
  "abi": [
    {
      "inputs": [],
      "payable": false,
      "stateMutability": "nonpayable",
      "type": "constructor"
    },
    {
      "anonymous": false,
      "inputs": [
        {
          "indexed": false,
          "internalType": "string",
          "name": "name",
          "type": "string"
        },
        {
          "indexed": false,
          "internalType": "string",
          "name": "date",
          "type": "string"
        },
        {
          "indexed": false,
          "internalType": "uint256",
          "name": "price",
          "type": "uint256"
        }
      ],
      "name": "EventCreated",
      "type": "event"
    },
    {
      "anonymous": false,
      "inputs": [
        {
          "indexed": false,
          "internalType": "address",
          "name": "user",
          "type": "address"
        },
        {
          "indexed": false,
          "internalType": "uint256",
          "name": "eventId",
          "type": "uint256"
        }
      ],
      "name": "UserRSVPed",
      "type": "event"
    },
    {
      "constant": true,
      "inputs": [],
      "name": "eventIdTracker",
      "outputs": [
        {
          "internalType": "uint256",
          "name": "",
          "type": "uint256"
        }
      ],
      "payable": false,
      "stateMutability": "view",
      "type": "function"
    },
    {
      "constant": true,
      "inputs": [],
      "name": "owner",
      "outputs": [
        {
          "internalType": "address payable",
          "name": "",
          "type": "address"
        }
      ],
      "payable": false,
      "stateMutability": "view",
      "type": "function"
    },
    {
      "constant": false,
      "inputs": [
        {
          "internalType": "string",
          "name": "_name",
          "type": "string"
        },
        {
          "internalType": "string",
          "name": "_date",
          "type": "string"
        },
        {
          "internalType": "uint256",
          "name": "_price",
          "type": "uint256"
        }
      ],
      "name": "createEvent",
      "outputs": [
        {
          "internalType": "uint256",
          "name": "_eventId",
          "type": "uint256"
        }
      ],
      "payable": false,
      "stateMutability": "nonpayable",
      "type": "function"
    },
    {
      "constant": true,
      "inputs": [
        {
          "internalType": "uint256",
          "name": "_eventId",
          "type": "uint256"
        }
      ],
      "name": "getEventDetails",
      "outputs": [
        {
          "internalType": "string",
          "name": "_name",
          "type": "string"
        },
        {
          "internalType": "string",
          "name": "_date",
          "type": "string"
        },
        {
          "internalType": "uint256",
          "name": "_price",
          "type": "uint256"
        }
      ],
      "payable": false,
      "stateMutability": "view",
      "type": "function"
    },
    {
      "constant": false,
      "inputs": [
        {
          "internalType": "uint256",
          "name": "_eventId",
          "type": "uint256"
        }
      ],
      "name": "rsvpForEvent",
      "outputs": [],
      "payable": true,
      "stateMutability": "payable",
      "type": "function"
    },
    {
      "constant": false,
      "inputs": [
        {
          "internalType": "uint256",
          "name": "_eventId",
          "type": "uint256"
        },
        {
          "internalType": "address",
          "name": "_attendee",
          "type": "address"
        }
      ],
      "name": "markAttended",
      "outputs": [],
      "payable": false,
      "stateMutability": "nonpayable",
      "type": "function"
    }
  ],
  "bytecode": "0x608060405234801561001057600080fd5b50336000806101000a81548173ffffffffffffffffffffffffffffffffffffffff021916908373ffffffffffffffffffffffffffffffffffffffff160217905550610c44806100606000396000f3fe6080604052600436106100555760003560e01c80635555fe171461005a5780637e21811e146101d75780638da5cb5b14610205578063eacbc7471461025c578063ec38d5a0146102b7578063fdd69d84146103de575b600080fd5b34801561006657600080fd5b506101c16004803603606081101561007d57600080fd5b810190808035906020019064010000000081111561009a57600080fd5b8201836020820111156100ac57600080fd5b803590602001918460018302840111640100000000831117156100ce57600080fd5b91908080601f016020809104026020016040519081016040528093929190818152602001838380828437600081840152601f19601f8201169050808301925050505050505091929192908035906020019064010000000081111561013157600080fd5b82018360208201111561014357600080fd5b8035906020019184600183028401116401000000008311171561016557600080fd5b91908080601f016020809104026020016040519081016040528093929190818152602001838380828437600081840152601f19601f82011690508083019250505050505050919291929080359060200190929190505050610409565b6040518082815260200191505060405180910390f35b610203600480360360208110156101ed57600080fd5b8101908080359060200190929190505050610630565b005b34801561021157600080fd5b5061021a610785565b604051808273ffffffffffffffffffffffffffffffffffffffff1673ffffffffffffffffffffffffffffffffffffffff16815260200191505060405180910390f35b34801561026857600080fd5b506102b56004803603604081101561027f57600080fd5b8101908080359060200190929190803573ffffffffffffffffffffffffffffffffffffffff1690602001909291905050506107aa565b005b3480156102c357600080fd5b506102f0600480360360208110156102da57600080fd5b81019080803590602001909291905050506108e8565b604051808060200180602001848152602001838103835286818151815260200191508051906020019080838360005b8381101561033a57808201518184015260208101905061031f565b50505050905090810190601f1680156103675780820380516001836020036101000a031916815260200191505b50838103825285818151815260200191508051906020019080838360005b838110156103a0578082015181840152602081019050610385565b50505050905090810190601f1680156103cd5780820380516001836020036101000a031916815260200191505b509550505050505060405180910390f35b3480156103ea57600080fd5b506103f3610a6f565b6040518082815260200191505060405180910390f35b60008060009054906101000a900473ffffffffffffffffffffffffffffffffffffffff1673ffffffffffffffffffffffffffffffffffffffff163373ffffffffffffffffffffffffffffffffffffffff161461046457600080fd5b61046c610a75565b848160000181905250838160200181905250828160400181815250506002549150600260008154809291906001019190505550806001600084815260200190815260200160002060008201518160000190805190602001906104cf929190610a9d565b5060208201518160010190805190602001906104ec929190610a9d565b50604082015181600201556060820151816004019080519060200190610513929190610b1d565b509050507fc788a3a93f2f2c07f951c9a951d8bff192f2b2de3224bb234f0efae1c2a5a79c858585604051808060200180602001848152602001838103835286818151815260200191508051906020019080838360005b8381101561058557808201518184015260208101905061056a565b50505050905090810190601f1680156105b25780820380516001836020036101000a031916815260200191505b50838103825285818151815260200191508051906020019080838360005b838110156105eb5780820151818401526020810190506105d0565b50505050905090810190601f1680156106185780820380516001836020036101000a031916815260200191505b509550505050505060405180910390a1509392505050565b60016000828152602001908152602001600020600201543411156106ac573373ffffffffffffffffffffffffffffffffffffffff166108fc60016000848152602001908152602001600020600201549081150290604051600060405180830381858888f193505050501580156106aa573d6000803e3d6000fd5b505b600180600083815260200190815260200160002060030160003373ffffffffffffffffffffffffffffffffffffffff1673ffffffffffffffffffffffffffffffffffffffff16815260200190815260200160002060006101000a81548160ff0219169083151502179055507fee74242d05045f23e364ffba7980616a901ec0d2c4fb2d2b736265d540360b463382604051808373ffffffffffffffffffffffffffffffffffffffff1673ffffffffffffffffffffffffffffffffffffffff1681526020018281526020019250505060405180910390a150565b6000809054906101000a900473ffffffffffffffffffffffffffffffffffffffff1681565b6000809054906101000a900473ffffffffffffffffffffffffffffffffffffffff1673ffffffffffffffffffffffffffffffffffffffff163373ffffffffffffffffffffffffffffffffffffffff161461080357600080fd5b6001600083815260200190815260200160002060030160008273ffffffffffffffffffffffffffffffffffffffff1673ffffffffffffffffffffffffffffffffffffffff16815260200190815260200160002060009054906101000a900460ff16156108e457600160008381526020019081526020016000206004018190806001815401808255809150509060018203906000526020600020016000909192909190916101000a81548173ffffffffffffffffffffffffffffffffffffffff021916908373ffffffffffffffffffffffffffffffffffffffff160217905550505b5050565b6060806000600160008581526020019081526020016000206000018054600181600116156101000203166002900480601f0160208091040260200160405190810160405280929190818152602001828054600181600116156101000203166002900480156109975780601f1061096c57610100808354040283529160200191610997565b820191906000526020600020905b81548152906001019060200180831161097a57829003601f168201915b50505050509250600160008581526020019081526020016000206001018054600181600116156101000203166002900480601f016020809104026020016040519081016040528092919081815260200182805460018160011615610100020316600290048015610a485780601f10610a1d57610100808354040283529160200191610a48565b820191906000526020600020905b815481529060010190602001808311610a2b57829003601f168201915b50505050509150600160008581526020019081526020016000206002015490509193909250565b60025481565b6040518060800160405280606081526020016060815260200160008152602001606081525090565b828054600181600116156101000203166002900490600052602060002090601f016020900481019282601f10610ade57805160ff1916838001178555610b0c565b82800160010185558215610b0c579182015b82811115610b0b578251825591602001919060010190610af0565b5b509050610b199190610ba7565b5090565b828054828255906000526020600020908101928215610b96579160200282015b82811115610b955782518260006101000a81548173ffffffffffffffffffffffffffffffffffffffff021916908373ffffffffffffffffffffffffffffffffffffffff16021790555091602001919060010190610b3d565b5b509050610ba39190610bcc565b5090565b610bc991905b80821115610bc5576000816000905550600101610bad565b5090565b90565b610c0c91905b80821115610c0857600081816101000a81549073ffffffffffffffffffffffffffffffffffffffff021916905550600101610bd2565b5090565b9056fea265627a7a72315820668ff3e3f2aa278292f95918180957c0c242f1b3ec6f3da754def84e4807d01364736f6c63430005100032",
  "source": "// SPDX-License-Identifier: MIT\npragma solidity ^0.5.6;\n\ncontract RSVP {\n    address payable public owner;\n\n    struct Event {\n        string name;\n        string date;\n        uint256 price;\n        mapping(address => bool) rsvpers;\n        address[] attendees;\n        /* \n      POSSIBLE FUTURE IMPLEMENTATION:\n      add a host, and upon creating an event, set host to msg.sender. This would allow anyone to create an event.\n      For now, only the owner of the contract is able to create an event. \n      !!! REMOVE THESE COMMENTS/LINES IF DECIDING NOT TO IMPLEMENT THIS FEATURE !!!\n      */\n        // address host\n    }\n\n    mapping(uint256 => Event) events;\n    uint256 public eventIdTracker;\n\n    event EventCreated(string name, string date, uint256 price);\n    event UserRSVPed(address user, uint256 eventId);\n\n    constructor() public {\n        owner = msg.sender;\n    }\n\n    modifier onlyOwner() {\n        require(msg.sender == owner);\n        _;\n    }\n\n    function createEvent(\n        string memory _name,\n        string memory _date,\n        uint256 _price\n    ) public onlyOwner returns (uint256 _eventId) {\n        Event memory newEvent;\n        newEvent.name = _name;\n        newEvent.date = _date;\n        newEvent.price = _price;\n\n        // PART OF FUTURE IMPLEMENTATION\n        // newEvent.host = msg.sender;\n\n        _eventId = eventIdTracker;\n        eventIdTracker++;\n        events[_eventId] = newEvent;\n\n        emit EventCreated(_name, _date, _price);\n    }\n\n    function getEventDetails(uint256 _eventId)\n        public\n        view\n        returns (\n            string memory _name,\n            string memory _date,\n            uint256 _price\n        )\n    {\n        _name = events[_eventId].name;\n        _date = events[_eventId].date;\n        _price = events[_eventId].price;\n    }\n\n    function rsvpForEvent(uint256 _eventId) public payable {\n      \n      if (msg.value > events[_eventId].price){\n        msg.sender.transfer(events[_eventId].price);\n      }\n        events[_eventId].rsvpers[msg.sender] = true;\n\n        emit UserRSVPed(msg.sender, _eventId);\n    }\n\n    function markAttended(uint256 _eventId, address _attendee)\n        public\n        onlyOwner\n    {\n        if (events[_eventId].rsvpers[_attendee]) {\n            events[_eventId].attendees.push(_attendee);\n        } \n    }\n\n}\n",
  "sourcePath": "/Users/adhakal/Documents/Projects/bETHere/contracts/RSVP.sol",
  "compiler": {
    "name": "solc",
    "version": "0.5.16+commit.9c3226ce.Emscripten.clang"
  },
  "schemaVersion": "3.2.3",
  "updatedAt": "2021-05-12T03:57:15.773Z",
  "networkType": "ethereum",
  "devdoc": {
    "methods": {}
  },
  "userdoc": {
    "methods": {}
  }
}