{
  "contractName": "RSVP",
  "abi": [
    {
      "inputs": [],
      "payable": false,
      "stateMutability": "nonpayable",
      "type": "constructor"
    },
    {
      "anonymous": false,
      "inputs": [
        {
          "indexed": false,
          "internalType": "string",
          "name": "name",
          "type": "string"
        },
        {
          "indexed": false,
          "internalType": "string",
          "name": "date",
          "type": "string"
        },
        {
          "indexed": false,
          "internalType": "uint256",
          "name": "price",
          "type": "uint256"
        },
        {
          "indexed": false,
          "internalType": "uint256",
          "name": "capacity",
          "type": "uint256"
        }
      ],
      "name": "EventCreated",
      "type": "event"
    },
    {
      "constant": true,
      "inputs": [],
      "name": "eventIdTracker",
      "outputs": [
        {
          "internalType": "uint256",
          "name": "",
          "type": "uint256"
        }
      ],
      "payable": false,
      "stateMutability": "view",
      "type": "function"
    },
    {
      "constant": true,
      "inputs": [],
      "name": "owner",
      "outputs": [
        {
          "internalType": "address payable",
          "name": "",
          "type": "address"
        }
      ],
      "payable": false,
      "stateMutability": "view",
      "type": "function"
    },
    {
      "constant": false,
      "inputs": [
        {
          "internalType": "string",
          "name": "_name",
          "type": "string"
        },
        {
          "internalType": "string",
          "name": "_date",
          "type": "string"
        },
        {
          "internalType": "uint256",
          "name": "_price",
          "type": "uint256"
        },
        {
          "internalType": "uint256",
          "name": "_capacity",
          "type": "uint256"
        }
      ],
      "name": "createEvent",
      "outputs": [
        {
          "internalType": "uint256",
          "name": "_eventId",
          "type": "uint256"
        }
      ],
      "payable": false,
      "stateMutability": "nonpayable",
      "type": "function"
    },
    {
      "constant": true,
      "inputs": [
        {
          "internalType": "uint256",
          "name": "_eventId",
          "type": "uint256"
        }
      ],
      "name": "getEventDetails",
      "outputs": [
        {
          "internalType": "string",
          "name": "_name",
          "type": "string"
        },
        {
          "internalType": "string",
          "name": "_date",
          "type": "string"
        },
        {
          "internalType": "uint256",
          "name": "_price",
          "type": "uint256"
        },
        {
          "internalType": "uint256",
          "name": "_capacity",
          "type": "uint256"
        }
      ],
      "payable": false,
      "stateMutability": "view",
      "type": "function"
    }
  ],
  "bytecode": "0x608060405234801561001057600080fd5b50336000806101000a81548173ffffffffffffffffffffffffffffffffffffffff021916908373ffffffffffffffffffffffffffffffffffffffff160217905550610852806100606000396000f3fe608060405234801561001057600080fd5b506004361061004c5760003560e01c80638da5cb5b14610051578063bce062b91461009b578063ec38d5a014610215578063fdd69d8414610336575b600080fd5b610059610354565b604051808273ffffffffffffffffffffffffffffffffffffffff1673ffffffffffffffffffffffffffffffffffffffff16815260200191505060405180910390f35b6101ff600480360360808110156100b157600080fd5b81019080803590602001906401000000008111156100ce57600080fd5b8201836020820111156100e057600080fd5b8035906020019184600183028401116401000000008311171561010257600080fd5b91908080601f016020809104026020016040519081016040528093929190818152602001838380828437600081840152601f19601f8201169050808301925050505050505091929192908035906020019064010000000081111561016557600080fd5b82018360208201111561017757600080fd5b8035906020019184600183028401116401000000008311171561019957600080fd5b91908080601f016020809104026020016040519081016040528093929190818152602001838380828437600081840152601f19601f8201169050808301925050505050505091929192908035906020019092919080359060200190929190505050610379565b6040518082815260200191505060405180910390f35b6102416004803603602081101561022b57600080fd5b81019080803590602001909291905050506105a0565b604051808060200180602001858152602001848152602001838103835287818151815260200191508051906020019080838360005b83811015610291578082015181840152602081019050610276565b50505050905090810190601f1680156102be5780820380516001836020036101000a031916815260200191505b50838103825286818151815260200191508051906020019080838360005b838110156102f75780820151818401526020810190506102dc565b50505050905090810190601f1680156103245780820380516001836020036101000a031916815260200191505b50965050505050505060405180910390f35b61033e61074a565b6040518082815260200191505060405180910390f35b6000809054906101000a900473ffffffffffffffffffffffffffffffffffffffff1681565b60008060009054906101000a900473ffffffffffffffffffffffffffffffffffffffff1673ffffffffffffffffffffffffffffffffffffffff163373ffffffffffffffffffffffffffffffffffffffff16146103d457600080fd5b6103dc610750565b8581600001819052508481602001819052508381604001818152505082816060018181525050600154915060016000815480929190600101919050555080600260008481526020019081526020016000206000820151816000019080519060200190610449929190610778565b506020820151816001019080519060200190610466929190610778565b5060408201518160020155606082015181600301559050507f3d865fcc13610733be8c80ad6fc71011e71cdfa247ce53867f10e84aed5629f186868686604051808060200180602001858152602001848152602001838103835287818151815260200191508051906020019080838360005b838110156104f35780820151818401526020810190506104d8565b50505050905090810190601f1680156105205780820380516001836020036101000a031916815260200191505b50838103825286818151815260200191508051906020019080838360005b8381101561055957808201518184015260208101905061053e565b50505050905090810190601f1680156105865780820380516001836020036101000a031916815260200191505b50965050505050505060405180910390a150949350505050565b6060806000806105ae610750565b60026000878152602001908152602001600020604051806080016040529081600082018054600181600116156101000203166002900480601f0160208091040260200160405190810160405280929190818152602001828054600181600116156101000203166002900480156106655780601f1061063a57610100808354040283529160200191610665565b820191906000526020600020905b81548152906001019060200180831161064857829003601f168201915b50505050508152602001600182018054600181600116156101000203166002900480601f0160208091040260200160405190810160405280929190818152602001828054600181600116156101000203166002900480156107075780601f106106dc57610100808354040283529160200191610707565b820191906000526020600020905b8154815290600101906020018083116106ea57829003601f168201915b5050505050815260200160028201548152602001600382015481525050905080600001519450806020015193508060400151925080606001519150509193509193565b60015481565b6040518060800160405280606081526020016060815260200160008152602001600081525090565b828054600181600116156101000203166002900490600052602060002090601f016020900481019282601f106107b957805160ff19168380011785556107e7565b828001600101855582156107e7579182015b828111156107e65782518255916020019190600101906107cb565b5b5090506107f491906107f8565b5090565b61081a91905b808211156108165760008160009055506001016107fe565b5090565b9056fea265627a7a723158200e506b4bbf6c9a86fc4b9efb1a277f5c9534d6acc72b63f4375338545af6e1c064736f6c63430005100032",
  "source": "// SPDX-License-Identifier: MIT\npragma solidity ^0.5.6;\n\ncontract RSVP {\n\n  address payable public owner;\n  uint public eventIdTracker;\n\n  struct Event {\n    string name;\n    string date;\n    uint price;\n    uint capacity;\n  }\n\n  mapping (uint => Event) events;\n  event EventCreated(string name, string date, uint price, uint capacity);\n\n  constructor() public {\n    owner = msg.sender;\n  }\n\n  function createEvent(string memory _name, string memory _date, uint _price, uint _capacity) public returns(uint _eventId) {\n    //Refactor and create function modifier called isOwner later\n    require (msg.sender == owner);\n\n    Event memory newEvent;\n    newEvent.name = _name;\n    newEvent.date = _date;\n    newEvent.price = _price;\n    newEvent.capacity = _capacity;\n\n  _eventId = eventIdTracker;\n  eventIdTracker++;\n  events[_eventId] = newEvent;\n\n  emit EventCreated(_name,_date,_price,_capacity);\n  }\n\n  function getEventDetails (uint _eventId) public view returns(string memory _name, string memory _date, uint _price, uint _capacity) {\n    Event memory foundEvent = events[_eventId];\n    _name = foundEvent.name;\n    _date = foundEvent.date;\n    _price = foundEvent.price;\n    _capacity = foundEvent.capacity;\n  }\n\n\n}\n",
  "sourcePath": "/Users/adhakal/Documents/Projects/bETHere/contracts/RSVP.sol",
  "compiler": {
    "name": "solc",
    "version": "0.5.16+commit.9c3226ce.Emscripten.clang"
  },
  "schemaVersion": "3.2.3",
  "updatedAt": "2021-04-24T23:11:08.340Z",
  "networkType": "ethereum",
  "devdoc": {
    "methods": {}
  },
  "userdoc": {
    "methods": {}
  }
}